:020000040800F2
:10000000805500200D0300080F1F0008311D000857
:100010000D1F0008430600087928000800000000B2
:100020000000000000000000000000004D02000879
:100030000107000800000000A9020008452200088E
:1000400027030008270300082703000827030008E8
:1000500027030008270300082703000827030008D8
:1000600027030008270300082703000827030008C8
:1000700027030008270300082703000827030008B8
:1000800027030008270300082703000827030008A8
:100090002703000827030008270300082703000898
:1000A000270300080D230008270300082703000882
:1000B0002703000827030008270300082703000878
:1000C0002703000827030008270300082703000868
:1000D000270300086D2800082703000827030008ED
:1000E0002703000827030008270300082703000848
:1000F0002703000827030008270300082703000838
:100100002703000827030008270300082703000827
:100110002703000827030008270300082703000817
:1001200027030008270300084506000827030008E6
:1001300027030008270300082703000827030008F7
:1001400027030008270300082703000827030008E7
:1001500027030008270300085106000827030008AA
:1001600027030008270300082703000827030008C7
:1001700027030008270300082703000800000000E9
:1001800027030008270300082703000827030008A7
:100190002703000827030008270300082703000897
:1001A00027030008270300082703000800F002F8CF
:1001B00000F03CF80AA090E8000C82448344AAF1C5
:1001C0000107DA4501D100F031F8AFF2090EBAE8C3
:1001D0000F0013F0010F18BFFB1A43F0010318477B
:1001E000A4410000C4410000103A24BF78C878C17F
:1001F000FAD8520724BF30C830C144BF04680C602D
:10020000704700000023002400250026103A28BF74
:1002100078C1FBD8520728BF30C148BF0B60704778
:100220001FB504F069F81FBD10B510BD00F0D0F97E
:100230001146FFF7F5FF02F0CBFB00F0EEF903B437
:10024000FFF7F2FF03BC00F0F5F900002C4B196832
:100250000868B0E8F04F80F30988BFF36F8F4FF064
:10026000000080F311887047000000000848006813
:10027000006880F308884FF0000080F3148862B6AD
:1002800061B6BFF34F8FBFF36F8F00DF00BF00BFBA
:1002900008ED00E0DFF80C00016841F47001016036
:1002A000704700BF88ED00E0EFF30980BFF36F8F68
:1002B000134B1A681EF0100F08BF20ED108A20E9BA
:1002C000F04F106009B44FF0500080F31188BFF375
:1002D0004F8FBFF36F8F03F0E1FA4FF0000080F310
:1002E000118809BC19680868B0E8F04F1EF0100FBB
:1002F00008BFB0EC108A80F30988BFF36F8F704796
:1003000018000020EFF3058070470000094880477F
:1003100009480047FEE7FEE7FEE7FEE7FEE7FEE7E7
:10032000FEE7FEE7FEE7FEE704480549054A064BFF
:1003300070470000FD220008AD010008804F00203A
:1003400080550020805100208051002053EA020C8B
:1003500000F069802DE9F04B4FF00006002B1FBF25
:10036000B3FA83F503FA05F424FA05F65E4012BFEA
:100370001643B2FA82F502FA05F4C5F120051EBF54
:1003800022FA05FC44EA0C04203556EA044C4FEAF4
:10039000144418BF641C4FF000084FF0000990424D
:1003A00071EB030C39D3002919BFB1FA81F701FAB7
:1003B00007F6B0FA80F700FA07F6C7F120071EBF6C
:1003C00020FA07FC46EA0C062037B6FBF4FCA7EB44
:1003D0000507103F07F01F0BCBF120060CFA0BFBB3
:1003E0002CFA06F644BFB3460026202FA4BF5E4673
:1003F0004FF0000B5BEA060C08BF4FF0010B19EB46
:100400000B09ABFB027C48EB0608C01B06FB02CCC9
:100410000BFB03CC71EB0C01C1E70B4602464146D6
:100420004846BDE8F08B13B54FF000004FF00001D7
:10043000AFF30080BDE81C407047032A40F23080D3
:1004400010F0030C00F0158011F8013BBCF1020F15
:10045000624498BF11F801CB00F8013B38BF11F896
:10046000013BA2F1040298BF00F801CB38BF00F8AD
:10047000013B11F0030300F05780083AC0F00880F8
:1004800051F8043B083A51F804CBA0E80810F5E70E
:10049000121D5CBF51F8043B40F8043BAFF30080F1
:1004A000D20724BF11F8013B11F801CB48BF11F866
:1004B000012B24BF00F8013B00F801CB48BF00F836
:1004C000012B704702F0FF0343EA032242EA024293
:1004D00000F05EB84FF0000200B513469446964611
:1004E000203922BFA0E80C50A0E80C50B1F1200147
:1004F000BFF4F7AF090728BFA0E80C5048BF0CC0F5
:100500005DF804EB890028BF40F8042B08BF704752
:1005100048BF20F8022B11F0804F18BF00F8012BC4
:10052000704770477047704710B5203AC0F00B8095
:10053000B1E81850203AA0E81850B1E81850A0E8E7
:100540001850BFF4F5AF5FEA027C24BFB1E8185041
:10055000A0E8185044BF18C918C0BDE810405FEAB1
:10056000827C24BF51F8043B40F8043B08BF70472D
:10057000D20728BF31F8023B48BF11F8012B28BF32
:1005800020F8023B48BF00F8012B70474FF00002F3
:100590000429C0F0128010F0030C3FF49DAFCCF1A1
:1005A000040CBCF1020F18BF00F8012BA8BF20F803
:1005B000022BA1EB0C01FFF78FBF5FEAC17C24BFC8
:1005C00000F8012B00F8012B48BF00F8012B704701
:1005D000754600F02BF8AE4605006946534620F0FC
:1005E0000700854618B020B5FFF79EFEBDE8204005
:1005F0004FF000064FF000074FF000084FF0000BDF
:1006000021F00701AC46ACE8C009ACE8C009ACE891
:10061000C009ACE8C0098D46704710B50446AFF379
:1006200000802046BDE81040FFF709BE0048704733
:10063000204F002001491820ABBEFEE72600020033
:100640007047FEE7014800F0B9B80000280100201B
:10065000014800F0B3B80000A40500200168182389
:10066000CAB2103AB2FBF3F2054B6FF30901032A49
:100670009B5CC36500D9091D816508467047000071
:100680004C43000810B5014600208B698A6A4FF080
:10069000C07453B1B3F5005F15D072B1012A0CD00C
:1006A000022A0AD0032A09D104E01AB1012A06D08D
:1006B000022A03D1C96AC90100D5012010BDC96A47
:1006C000A142FAD010BD002AF7D0012AF2D0022AA6
:1006D000F3D0032AF3D010BD30B50468256825F4A3
:1006E00080252560046863608368402B036803D01D
:1006F00099600068C26030BD9A600068C16030BD1A
:10070000704772B6FEE72DE9F0410446876D00F0B0
:10071000F3FA064694F835000025022806D080201A
:10072000606584F834500120BDE8F08120680168DC
:1007300021F0160101602068416921F080014161CA
:10074000206C08B9A06C20B12068016821F0080174
:1007500001602068016821F0010101600CE000F0F7
:10076000CBFA801B052807D920206065032084F878
:10077000350084F83450D7E720680068C007EED110
:1007800094F85C103F208840B860012084F8350060
:1007900084F834500020C7E790F83510022903D0C0
:1007A0008021416501207047052180F835100068DF
:1007B000016821F001010160002070472DE9F84334
:1007C00004464FF00009CDF8009063484FF41651ED
:1007D000A56D0068B0FBF1F72E6894F85C10082056
:1007E00000FA01F131420FD021680A6852070BD597
:1007F0000A6822F004020A6094F85C108840A8603D
:10080000606D40F00100606594F85C104FF00108E5
:1008100008FA01F0304208D021684969090604D578
:10082000A860606D40F00200606594F85C100420E0
:100830008840304208D021680968890704D5A8603B
:10084000606D40F00400606594F85C1010208840F2
:10085000304218D021680968090714D5A8602068BB
:100860000168490304D50068000308D5A16C07E0BE
:100870000168C90503D4016821F008010160216CF9
:1008800009B12046884794F85C1020208840304207
:1008900031D021680968C9062DD5A86094F83500C3
:1008A00005282068016806D0490347D50068000381
:1008B0001DD4616C1CE021F01601016020684169C3
:1008C00021F080014161206C08B9A06C20B1206842
:1008D000016821F00801016094F85C103F20884015
:1008E000A86084F8358084F83490216D1FE0E16BB6
:1008F00009B120468847606D00282BD0606DC00785
:1009000014D0052084F835002068016821F0010129
:1009100001600098401C0090B84203D8206800682D
:10092000C007F6D184F8358084F83490E16C002952
:1009300010D001B02046BDE8F04308470168C90562
:10094000D5D4016821F01001016084F8358084F865
:100950003490CCE7BDE8F883140000202DE9F04185
:10096000044600F0C9F906465CB1022084F835005F
:10097000002584F834502068016821F001010160ED
:100980000DE00120BDE8F08100F0B6F9801B0528DC
:1009900005D920206065032084F83500F2E720683F
:1009A0000068C007F0D12268116820480140D4E9EE
:1009B00001031843D4E903363343184363691843EA
:1009C000A3691843E3691843236A18430843616A1B
:1009D000042903D1D4E90B1319430843106020689C
:1009E0004069666A20F0070130460E43012704285B
:1009F0000CD1A06A0643E06A40B12046FFF742FEF0
:100A000020B14020606584F83570BAE720684661FF
:100A10002046FFF723FE94F85C203F21914081603F
:100A2000656584F835700020ACE700003F8010F069
:100A30002DE9F0410446866D90F834000025012828
:100A40000DD0012084F8340094F835700020012F77
:100A500007D084F8340002252846BDE8F081022042
:100A6000FBE7022784F8357060652046FFF734FE07
:100A700094F85C103F208840B0602068016841F025
:100A800016010160206C20B12068016841F0080166
:100A900001602068016841F001010160DCE70000AD
:100AA0002DE9F84FDFF8F8A10022012403254FF0CB
:100AB0000F090AF1040BAAF1040E00BF0B6804FA37
:100AC00002F63340B34270D10F7907F00307012FCC
:100AD00001D0022F16D187684FEA420805FA08FCB8
:100AE00027EA0C07D1F80CC00CFA08FC4CEA070CFA
:100AF000C0F808C04768B7430E79C6F300169640A1
:100B00003E4346600E79F643B6070AD0C7684FEAFF
:100B1000420C05FA0CF6B7438E6806FA0CF63E4313
:100B2000C6600E7906F00306022E10D1D60800EB3F
:100B30008608D8F8206057074FEAD76C09FA0CF7F7
:100B4000BE430F6907FA0CF73743C8F820700668F0
:100B50004FEA420C05FA0CF7BE430F7907F0030782
:100B600007FA0CF7374307604E6816F4403F1CD075
:100B70004C4E376847F480473760366822F00307E9
:100B800006F480460096484E07EB060CDCF8086831
:100B900097073F0F09FA07F826EA0806DFF80C81E5
:100BA000404503D14FF0000841E072E0DFF80081DA
:100BB000404502D14FF0010839E0DFF8F8804045A8
:100BC00002D14FF0020832E0DFF8EC80404502D15C
:100BD0004FF003082BE0DFF8E480404502D14FF0EE
:100BE000040824E0DFF8D880404502D14FF0050822
:100BF0001DE0DFF8D080404502D14FF0060816E036
:100C0000DFF8C480404502D14FF007080FE0DFF85D
:100C1000BC80404502D14FF0080808E0DFF8B08002
:100C2000404502D14FF0090801E04FF00A0808FAE8
:100C300007F848EA0608CCF80888DAF80060574652
:100C4000D1F804C09E435FEACC2C00D51E433E6021
:100C5000DBF800605F46D1F804C09E435FEA8C2C4D
:100C600000D51E433E60DEF800607746D1F804C030
:100C70009E435FEA8C3C00D51E433E60084F083F10
:100C80003E68D1F804C09E435FEACC3C00D51E43C9
:100C90003E60521C102AFFF411AFBDE8F88F00002F
:100CA000083C01404438024000300140000002404E
:100CB0000004024000080240000C02400010024004
:100CC0000014024000180240001C024000200240B4
:100CD000002402400069084000D0012070474269AA
:100CE00021EA02030A4043EA0241816170470AB1E6
:100CF000816170470904FBE7014880687047000084
:100D00000800002002488168027811448160704721
:100D1000080000200B4810B5016841F40071016023
:100D2000016841F480610160016841F480710160F3
:100D3000032000F099F80F2000F006F800F04AF8C0
:100D4000002010BD003C024030B505461C4887B06D
:100D50000024016841F001010160006806A900F06B
:100D60000100009001A800F063F900F091F9154925
:100D70004000B0FBF1F11548134A491E026040F2F1
:100D8000E732C0E90324C0E90114846100F0C2FB2A
:100D9000040012D10D4800F0FDFB04000DD1192014
:100DA00000F034F8102D07D200222946192000F057
:100DB0003BF80748056000E0012407B0204630BD3D
:100DC0004438024040420F00000001400406002069
:100DD0000C0000200C4882B0016841F480410160A1
:100DE000006800F4804000900748001F016841F04F
:100DF000805101600068002200F0805000900F21B7
:100E0000901E02B000F010B844380240002809DB00
:100E100000F01F02012191404009800000F1E02014
:100E2000C0F8001170470000F0B40E4B1B680C4670
:100E3000C3F30223C3F10705042D00D90425191DAE
:100E4000072901D2002300E0DB1E012606FA05F186
:100E5000491E214099409E40761E16403143F0BC09
:100E600001F00BBD0CED00E0064900F00702086838
:100E70004FF6FF03184040EA0220034A104308607F
:100E8000704700000CED00E00000FA052DE9F84382
:100E90001748016841F0805101600068154F00F06B
:100EA0008050012600903E64FFF726FF05464FF470
:100EB0007A78114C05E000BFFFF71EFF401B40454C
:100EC0000DD86068C003F7D57E64FFF715FF0546AF
:100ED000464607E0FFF710FF401BB04202D903204F
:100EE000BDE8F88360688003F4D50020F8E70000CF
:100EF0004038024000000E42007000402DE9F047EB
:100F00000E46050065D0DFF81481D8F80000F7B26E
:100F100000F00F00B04207D288F80070D8F8000047
:100F200000F00F00B04254D128683D4C810712D523
:100F3000400703D5206840F4E0502060287800077F
:100F400003D5206840F4604020602068A96820F044
:100F5000F000084320602878C0072DD03049686829
:100F60000839012812D0022813D0032811D00968AB
:100F7000890700292DDA216821F00301014321604E
:100F8000FFF7BAFE814641F2883A0EE0096889030C
:100F9000EFE709688901ECE7FFF7AEFEA0EB090176
:100FA000514502D90320BDE8F0872068696800F048
:100FB0000C00B0EB810FEFD1D8F80010404601F0E3
:100FC0000F01B14207D90770006800F00F00B0426E
:100FD00001D00120E7E72878400705D52068E968B7
:100FE00020F4E050084320602878000706D52068E8
:100FF000296920F4604040EAC100206000F058F800
:101000002168084AC1F30311515CC84006490860D1
:1010100006480068FFF798FE0020C4E7003C024045
:101020000838024054430008140000200C0000203F
:101030000F2202600C4A136803F003034360136835
:1010400003F0F0038360136803F4E053C360126895
:101050004FF4E05303EAD20202610448006800F052
:101060000F0008607047000008380240003C024052
:101070000448054900680968044AC1F38221515CAB
:10108000C84070471400002008380240644300083C
:101090000448054900680968044AC1F34231515CBB
:1010A000C84070471400002008380240644300081C
:1010B000154810B5006810F00C02144813D01449FC
:1010C000042A0FD0082A0ED10F4C241F226823684F
:1010D00002F03F025B0207D52068C0F38810A0FB36
:1010E000010106E0084610BD2168C1F38811A1FB8B
:1010F00000010023FFF72AF92168C1F30141491CCF
:101100004900B0FBF1F010BD083802400024F400A3
:1011100040787D012DE9F84F04006ED02078DFF88B
:101120004C93C007A9F104054AD009F104000168F5
:10113000C1F38101012908D00068C0F381000228B1
:101140000AD1D9F80000400206D52868800337D5B7
:1011500060680028E1D033E06068B0F5803F10D0CF
:10116000B0F5A02F286810D020F4803028602868BF
:1011700020F4802028606068A8B1FFF7BDFD064616
:101180000DE0286840F48030F4E740F480202860C7
:10119000F7E700BFFFF7B0FD801B642873D828680D
:1011A0008003F7D50CE0FFF7A7FD064605E000BF7A
:1011B000FFF7A2FD801B6428F0D828688003F7D4CD
:1011C0002078DFF8AC8280074FF0000A3ED5A748B0
:1011D000001D016811F00C0F08D00068C0F38100F9
:1011E00002280BD1D9F80000400207D428688007F4
:1011F00016D5E068012800D112E033E1E068B8B10B
:101200000120C8F80000FFF777FD064605E000BFA3
:10121000FFF772FD801B0228C0D828688007F7D529
:101220002868216920F0F80040EAC10028600DE03C
:10123000C8F800A0FFF760FD064604E0FFF75CFD7C
:10124000801B02281FD828688007F7D42078000761
:1012500022D5864F87486169703771B101210160DD
:10126000FFF74AFD064604E0FFF746FD801B022813
:1012700009D838688007F7D50EE0C0F800A0FFF75E
:101280003BFD064605E082E0FFF736FD801B0228A5
:101290007DD838688007F7D42078400768D5DFF814
:1012A000CCB100270BF13C0BDBF80000C0000BD4E5
:1012B000DBF8001041F08051CBF80010DBF80000A3
:1012C000012700F0805000906B4E3068C00510D4AC
:1012D000306840F480703060FFF70EFD009005E04C
:1012E000FFF70AFD0099401A022850D83068C0055F
:1012F000F6D55E4EA0686C3601280FD00528306800
:1013000010D020F001003060306820F00400306020
:10131000A068B8B1FFF7F0FC00900FE0306840F033
:101320000100F4E740F004003060F7E7FFF7E4FC69
:101330000099411A41F28830814266D830688007AE
:10134000F4D50EE0FFF7D8FC009007E0FFF7D4FCDF
:101350000099411A41F28830814256D8306880079E
:10136000F4D42FB1DBF8001021F08051CBF800103D
:10137000A069C8B33D49091D0968C1F3810102296B
:101380004AD00228504607D0C8F8600000E03CE090
:10139000FFF7B2FC04463BE04746C8F86000FFF7A1
:1013A000ABFC064605E000BFFFF7A6FC801B022849
:1013B0002BD828688001F7D4D4E907010843A16A33
:1013C0002E4A490802EB0141626A41EA8211084350
:1013D00094F82C1040EA0161C9F800100120386629
:1013E000FFF78AFC044606E03EE000BFFFF784FCFE
:1013F000001B022809D828688001F7D534E000BF17
:10140000FFF77AFC001B022802D90320BDE8F88F01
:1014100028688001F4D427E00128F7D0D9F800002B
:10142000E26900F4800191421CD1226A00F03F0180
:10143000914217D147F6C071626A0140B1EB821F39
:1014400010D1A26A4FF0FF3300F4403103EB520297
:10145000B1EB024F06D194F82C1000F07060B0EBA5
:10146000016F01D00120D1E70020CFE7043802400E
:1014700000004742800E4742007000400000FFFF1E
:101480007047704770B590F83C20012A32D0012493
:1014900080F83C40022280F83D2003685A689D682D
:1014A00022F070060A6832435A60134B02689A426F
:1014B00014D0B2F1804F11D0104B9A420ED0104B85
:1014C0009A420BD00F4B9A4208D00F4B9A4205D04C
:1014D0000E4B9A4202D00E4B9A4204D1496825F035
:1014E00080031943916080F83D40002180F83C1052
:1014F000084670BD022070BD00000140000400409D
:1015000000080040000C0040000401400040014081
:101510000018004010B5040003D094F83D0010B14D
:1015200007E0012010BD002084F83C00204600F0B8
:101530001FF8022084F83D00211D206800F0ECFE19
:10154000012084F8460084F83E0084F83F0084F8C7
:10155000400084F8410084F8420084F8430084F895
:10156000440084F8450084F83D00002010BD0000D0
:1015700008B50068B0F1804F08D10548016841F016
:1015800001010160006800F00100009008BD00004A
:101590004038024090F83D10012901D001207047E9
:1015A000022180F83D100168CA6842F00102CA6059
:1015B00000681149884214D0B0F1804F11D00F4912
:1015C00088420ED00E4988420BD00E49884208D07E
:1015D0000D49884205D00D49884202D00C49884205
:1015E00004D1816801F00701062903D0016841F0A8
:1015F000010101600020704700000140000400402C
:1016000000080040000C0040000401400040014080
:101610000018004070B5044690F83C0000250128F1
:1016200017D0012684F83C60022084F83D00206831
:10163000826822F0770222F47F4282600868502894
:1016400038D00DDC20284FD005DC90B3102811D104
:101650004AE0022070BD302846D040280AD13BE045
:1016600060282FD070280DD0B0F5805F03D0B0F582
:10167000005F12D0012584F83D60002084F83C0012
:10168000284670BDCB68D1E90121206800F0B0FE8A
:101690002068816841F0770109E0CB68D1E9012138
:1016A000206800F0A5FE2068816841F480418160D7
:1016B000E1E719E0CA684968206800F0ABFE5021F4
:1016C000206806E0CA684968206800F0B4FE60211E
:1016D000206800F097FECEE7CA684968206800F0ED
:1016E00099FE40212068F4E7226801461046F0E7A1
:1016F00070472DE9F04104460068C66805694FF05F
:101700000007A90713D5B10711D5F91E0161012002
:101710002077206880698007204602D0FFF7E8FF25
:1017200004E000F07EF8204600F07CF82777680798
:1017300016D5700714D521686FF0040008610220E7
:1017400020772068806910F4407F204602D0FFF7A0
:10175000CFFF04E000F065F8204600F063F827773B
:10176000280715D5300713D521686FF008000861E8
:10177000042020772068C0698007204602D0FFF748
:10178000B7FF04E000F04DF8204600F04BF8277753
:10179000E80616D5F00614D521686FF01000086130
:1017A000082020772068C06910F4407F204602D0CE
:1017B000FFF79EFF04E000F034F8204600F032F816
:1017C0002777E80708D0F00706D021686FF00100FE
:1017D0000861204600F028F8280608D5300606D50E
:1017E00021686FF0800008612046FFF749FE680617
:1017F00008D5700606D521686FF0400008612046C4
:1018000000F01CF8A8060AD5B00608D521686FF0CC
:10181000200008612046BDE8F041FFF732BEBDE878
:10182000F08170477047000000680349884201D189
:10183000FFF768BA7047000000000140704738B5F4
:10184000044690F84200202801D0022038BD61B142
:101850005AB10120206300206063204600F0BEFFE3
:101860000028F3D1216B012901D0012038BD216866
:101870000A684968009121680C3151E8002F42F054
:10188000100241E80023002BF5D138BD10B50068E7
:101890001449884225D1144C60797A2802D1E07A23
:1018A000A7280CD05FF0000084F80C04611D0E48DE
:1018B000BDE810404FF48062A838FFF7C0BF4FF476
:1018C00000510A48FFF70BFA0948A0F5806151F86A
:1018D000752F40F8752F8A8882808979817101205F
:1018E000E2E710BD00100140880100200014024012
:1018F0001805002070470000F8B501680446086824
:10190000CA684B6910F00F0F4FF0000559D003F073
:10191000010602F49077374365D0C10705D0D105A1
:1019200003D5616C41F001016164410705D5D90718
:1019300003D0616C41F002016164810705D5D907CC
:1019400003D0616C41F004016164010707D502F026
:101950002001314303D0616C41F008016164616C86
:1019600000293AD0800604D5900602D5204600F022
:101970004EFE20684069616CC0F38010090700D4F6
:1019800060B3204600F00EFE20684069400621D575
:101990002068143050E8001F21F0400140E8001298
:1019A000002AF5D1E06BA8B16E490165E06BFEF746
:1019B000F3FE002811D0E06B016D01B0BDE8F040EE
:1019C000084783060FD593060DD52046BDE8F8409D
:1019D00000F01DBE2046FFF78DFFF8BD2046FFF743
:1019E00089FF6564F8BD266B2023012E7DD1C606D4
:1019F0007BD5D60679D508684868009048694FF0CD
:101A00000206400641D5E16B086840680004000CFE
:101A1000E8D0A28D8242E5D9E085C869B0F5807F23
:101A20002DD020680C3050E8001F21F4807140E870
:101A30000012002AF5D12068143050E8001F21F070
:101A4000010140E80012002AF5D12068143050E866
:101A5000001F21F0400140E80012002AF5D184F86F
:101A60004230256320680C3050E8001F21F010013F
:101A700040E80012002AF5D1E06BFEF744FE6663F1
:101A8000A08DE18D401A81B22AE0A08DE18D401A2F
:101A900081B2E08D0028A5D00029A3D022680C32A5
:101AA00052E8000F20F4907042E80007002FF5D1B3
:101AB0002068143050E8002F22F0010240E800278F
:101AC000002FF5D184F84230256320680C3050E8AF
:101AD000002F22F0100240E80023002BF5D16663AE
:101AE0002046FFF7D3FEF8BDFFE705062BD5150608
:101AF00029D594F841002128F5D1A068B0F5805F80
:101B000001D12069B0B1206A411C216221680078AE
:101B10004860E08C401E0004000CE084E3D12068A3
:101B2000C16821F08001C1602068C16841F04001B6
:101B3000C160D8E7206A0088C0F308004860206AC6
:101B4000801C2062E5E74006CDD55006CBD5CA689B
:101B5000204622F04002CA6084F8413000F0E6F8E6
:101B6000C1E700005B24000870B5040004D094F8BD
:101B70004100002510B106E0012070BD84F84050FE
:101B8000204600F023F8242084F841002068C16832
:101B900021F40051C160204600F09AFD20680169DF
:101BA00021F4904101612068416921F02A014161DD
:101BB0002068C16841F40051C1606564202084F848
:101BC000410084F842006563002070BD2DE9F041BA
:101BD00086B0064614216846FEF77CFC2E49306824
:101BE000884256D12D480024016841F0100101605F
:101BF000006800F01000059028481438016841F092
:101C0000020101600068694600F002000590C020F2
:101C100000900220CDE901040320039007200490E6
:101C20001F48FEF73DFF204D1E484FF0006728601B
:101C3000C5E901744FF48068C5E903486C61AC6183
:101C4000EC612C6228466C62FEF788FE08B1FEF754
:101C500058FDF563AE631348144D7830E5E802078C
:101C60004020A5E81101114845F81449AC61EC6128
:101C70002C626C62FEF772FE08B1FEF742FDB5639E
:101C8000002205212520AE63FFF7CEF82520FFF7BF
:101C9000BDF806B0BDE8F0810010014044380240B4
:101CA000000402404064024028010020A4050020F6
:101CB0007047704770B5044690F84100202801D065
:101CC000022070BD49B342B32162A284E2840020A5
:101CD0006064212384F84130A56B114BEB63A56B45
:101CE000104B2B64A56B104BEB64A36B1865256838
:101CF00013462A1DA06BFEF79BFE21686FF0400083
:101D000008602068143050E8001F41F0800140E86E
:101D10000012002AF5D1002070BD012070BD000026
:101D2000592500089B2500086B2400087047704760
:101D3000FEE700002DE9F04F87B014216846FEF75A
:101D4000C9FB53480024016841F08001016001682B
:101D500001F080010591016841F004010160016812
:101D600001F004010591016841F002010160016880
:101D700001F002010591016841F020010160016854
:101D800001F020010591016841F040010160016806
:101D900001F040010591016841F010010160016806
:101DA00001F010010591016841F00801016001682E
:101DB00001F008010591016841F00101016000682E
:101DC000DFF8D09000F00100059000222021484665
:101DD000FEF78DFFDFF8C0B0002207215846FEF75E
:101DE00086FFDFF8B8A04FF47848002241465046FD
:101DF000FEF77DFF00220C212948FEF778FF03251E
:101E000020200126022703958DE8C1006946484637
:101E1000FEF746FE072003958DE8C1006946584647
:101E2000FEF73EFECDE90275CDE9008669465046D3
:101E3000FEF736FECDE90054694619480294FEF7D4
:101E40002FFE4FF68070CDE90004694615480294D4
:101E5000FEF726FE4FF47050CDE90004694658465F
:101E60000294FEF71DFE4FF47E40CDE90004694662
:101E70000D480294FEF714FE0C2003958DE8C10076
:101E800069460748FEF70CFE07B0BDE8F08F00007A
:101E900030380240000802400004024000140240B2
:101EA0000018024000100240000C024010B586B03D
:101EB00000241548009401940294039404944FF074
:101EC00080410594C0E90014611EC0E9024104612B
:101ED0008461FFF71FFB08B172B6FEE74FF4805034
:101EE000009069460848FFF795FB08B172B6FEE717
:101EF000049404A904480594FFF7C4FA002801D00B
:101F000072B6FEE706B010BD98000020FEE7FEE7BF
:101F1000964D974C4FF001084FF4005A4FF48057FC
:101F200040F6B8364FF000094FF4804B394628464A
:101F3000FEF7D0FE00287ED051462846FEF7CAFEA6
:101F400000287AD059462846FEF7C4FE002876D0ED
:101F50004FF400412846FEF7BDFE002871D05146DF
:101F60008448FEF7B7FE00286DD04FF40071284674
:101F7000FEF7B0FE002869D04FF480612846FEF7D6
:101F8000A9FE00286FD001217B48FEF7A3FE0028A0
:101F90006BD002217848FEF79DFE00287ED080217C
:101FA0007648FEF797FE00287AD04FF48071734888
:101FB000FEF790FEF0B34FF400717048FEF78AFE12
:101FC000D0B34FF480616D48FEF784FEB0B359463C
:101FD0006A48FEF77FFE98B339466848FEF77AFEF6
:101FE00080B34FF400616548FEF774FE60B351465C
:101FF0006248FEF76FFE40B34FF400415F48FEF7C2
:1020000069FE78B34FF480615A48FEF763FE58B317
:102010004FF400615748FEF75DFE38B33946554826
:10202000FEF758FE80B34FF400612846FEF752FEDB
:1020300060B30CE036E01BE036E01CE036E01DE06B
:1020400036E01DE036E01DE036E037E01FE084F8C2
:10205000049084F81494A4F8129484F81894A4F8C2
:10206000169469E02CE014E02CE015E02CE015E07B
:1020700084F8148431E084F804802BE0022028E006
:10208000032026E0042024E020E009E020E00520F1
:102090001FE084F818841DE007201AE0082018E0EB
:1020A000092016E00A2014E00B2012E00C2010E0BA
:1020B0000D200EE00E200CE00F200AE0102008E0BA
:1020C000112006E0122004E0132002E0142000E0BA
:1020D0001520207194F81404C0B1B4F81204B04271
:1020E00014D2401C80B2A4F81204B0420ED394F86B
:1020F000150430B15FF0000084F8150418B1002019
:1021000002E00120F8E7012000F0C8FB94F8180471
:1021100090B1B4F81604B0420ED2401C80B2A4F8BC
:102120001604B04208D30620207194F81904D8B1DF
:102130005FF0000084F81904E078401CC0B2E07041
:102140001E280DD959460E48FEF7C9FD84F80390A4
:102150002079074960700322A1F1A800FFF7AAFDCA
:10216000012000F0E3FCE1E60120E3E7000C02407F
:1021700088010020000402400018024000100240C4
:10218000001402402E4C4FF480652D482A46611DF4
:10219000A838FFF754FB94F80C0480B3002084F8AF
:1021A0000C0494F8060484F80D0494F8071484F8D9
:1021B0000E1494F8081484F80F1494F8091484F891
:1021C000101494F80A1484F8111410B1012802D0E4
:1021D00004E0022000E0032000F060FB94F80E040D
:1021E00010B1012802D004E0052000E0042000F036
:1021F00055FB94F80F0418B1012803D005E01AE04C
:10220000092000E0082000F049FB94F8100410B108
:10221000012802D004E00B2000E00A2000F03EFB81
:1022200094F8110410B1012802D004E00D2000E060
:102230000C2000F033FB012000F078FCA5E7000043
:102240008801002010B54FF0E020006901F09EFEEB
:10225000012803D0BDE8104001F0CCBB10BD000048
:1022600070B592B030216846FEF734F914210CA8FD
:10227000FEF730F91F480025016841F080510160E8
:10228000006800F0805011901B48016841F4404103
:1022900001600068022400F4404011900120009089
:1022A000000401908001CDE906400F260896D82051
:1022B000CDE9090404200B906846FEF72BFF08B116
:1022C00072B6FEE7FEF7E2FD08B172B6FEE74FF424
:1022D000A050CDE90E504FF48050CDE90C64109021
:1022E00005210CA8FEF70AFE002801D072B6FEE711
:1022F00012B070BD403802400070004002480168D2
:1023000041F470010160704788ED00E00148FFF77B
:10231000F0B9000004060020F0B50268294C2A4DEF
:102320002A4E2B4F2B4B4FF0804CA04209D06045DA
:1023300007D0A84205D0B04203D0B84201D098429D
:1023400004D122F0700E4A6842EA0E02A0421BD06D
:10235000604519D0A84217D0B04215D0B84213D06A
:10236000984211D01C4DA8420ED01C4DA8420BD053
:102370001B4DA84208D01B4DA84205D01A4DA842BB
:1023800002D01A4DA84203D122F44075CA682A43EC
:102390004D6922F080022A4302608A68C2620A689C
:1023A0008262A04201D0984201D1096901630121F2
:1023B00041610169C90703D0016921F0010101618F
:1023C000F0BD000000000140000400400008004093
:1023D000000C004000040140004001400044014066
:1023E0000048014000180040001C00400020004050
:1023F00010B5846842EA032224F47F440A4322434E
:10240000826010BD826822F070020A4342F0070128
:102410008160704710B5036A046A24F00104046205
:10242000846924F0F00444EA021423F00A020A4307
:102430008461026210BD10B5036A046A24F01004BE
:102440000462846923F0A00324F4704444EA023255
:1024500043EA01118261016210BD10B5806B002159
:10246000C185C184FFF746FA10BD70B5846B206842
:10247000406994F84110C0F3C0100025212904D10F
:1024800018B1E584204600F0B4F82068406994F85B
:102490004210C0F38010222904D118B1E5852046EE
:1024A00000F080F8606C40F0100060642046FFF798
:1024B00021FA70BD10B50146806B096809684FF0BC
:1024C0000002C9052ED4C28501680C3151E8003FD5
:1024D00023F4807341E80034002CF5D101681431F5
:1024E00051E8003F23F0010341E80034002CF5D10E
:1024F0000168143151E8003F23F0400341E8003403
:10250000002CF5D1202180F84210016B012909D15E
:1025100001680C3151E8003F23F0100341E800341A
:10252000002CF5D14263016B012902D0FFF7C0FBFB
:1025300010BD818DFFF7AAF910BD10B5806B012188
:102540004163016B012902D0FFF7B3FB10BD818D00
:102550004908FFF79BF910BD10B50146806B09686B
:102560000968C90516D40021C1840168143151E8F5
:10257000002F22F0800241E80023002BF5D10168F2
:102580000C3151E8002F42F0400241E80023002BBB
:10259000F5D110BDFFF7CAFB10BD10B5806BFFF77A
:1025A000C6FB10BD01680C3151E8002F22F4907277
:1025B00041E80023002BF5D10168143151E8002FC8
:1025C00022F0010241E80023002BF5D1016B012923
:1025D00009D101680C3151E8002F22F0100241E8C6
:1025E0000023002BF5D1202180F842100021016347
:1025F000704701680C3151E8002F22F0C00241E819
:102600000023002BF5D1202180F84110704708B538
:1026100090F84210222901D0022008BD82684FF4B0
:1026200080539A4201D1016921B1816A9A421BD03B
:102630004AB10AE00268816A5268C2F308020A805D
:10264000816A891C08E0026972B10268526802F06E
:102650007F020A70816A491C8162C18D491E09048A
:10266000090CC18503D01BE002685268F1E70168DC
:10267000CA6822F02002CA600168CA6822F4807227
:10268000CA6001684A6922F001024A61202180F88B
:10269000421000214163026B012A03D0FFF708FBBF
:1026A000002008BD016301680C3151E8002F22F0C1
:1026B000100241E80023002BF5D101680A68D20618
:1026C00002D50A6849680091818DFFF7DFF8E7E7D6
:1026D00070B5044600680169E26821F44051114375
:1026E00001612169A068E2690843616911430843F7
:1026F0002168CA6849F20C639A430243CA602068A1
:102700004169A26921F44071114341613149206856
:10271000884202D03049884202D1FEF7B9FC01E07C
:10272000FEF7A6FCE2690023192164253226B2F5E2
:10273000004F626828D0A0FB0101930F9200FDF7C3
:1027400005FE0146B0FBF5F06FF01802504301EBB7
:10275000800006EB0010B0FBF5F000F0F002B1FBDA
:10276000F5F002EB0012B1FBF5F06FF018035843DF
:1027700001EB800006EB0010B0FBF5F000F00F005D
:1027800021681044886070BDA0FB010192185B4174
:10279000FDF7DCFD0146B0FBF5F00201B1FBF5F001
:1027A0006FF01803584301EB800006EBC000B0FB4C
:1027B000F5F000F0F80002EB4002B1FBF5F05843F1
:1027C00001EB800006EBC000B0FBF5F000F0070065
:1027D000D6E70000001001400014014038B58162C6
:1027E00004468285002013466064222284F8422039
:1027F000E56B1B4AEA63E56B1A4A2A64E56B1A4AE1
:10280000EA64E26B10650A462168E06B091DFEF779
:102810000FF92068016840680090206948B120687D
:102820000C3050E8001F41F4807140E80012002A8B
:10283000F5D12068143050E8001F41F0010140E854
:102840000012002AF5D12068143050E8001F41F032
:10285000400140E80012002AF5D1002038BD0000F8
:10286000B52400083B2500086B2400080148FFF749
:1028700043B80000E0000020FEE70907090E002829
:1028800004DB00F1E02080F80014704700F00F0036
:1028900000F1E02080F8141D704700002DE9F0479A
:1028A000474F484D484C494E4FF400684FF480590B
:1028B000012817D0C0B303285CD0022861D00528B6
:1028C00068D0042868D0092852D0082868D00B287E
:1028D0006DD00A286DD00D286ED00C286ED1012243
:1028E00004215BE0002220213846FEF700FA002296
:1028F00004212846FEF7FBF9002220213846FEF786
:10290000F6F9002204212046FEF7F1F900224146A3
:102910003046FEF7ECF9002208212846FEF7E7F9D9
:102920000022012120461CE0FFE70122114620463B
:10293000FEF7DDF9012220213846FEF7D8F9012201
:1029400004212846FEF7D3F9012204212046FEF790
:10295000CEF9002241463046FEF7C9F9002208218F
:102960002846FEF7C4F9002202212046FEF7BFF9EF
:10297000002216E0002204212046FEF7B8F90122C9
:1029800005E0012204212046FEF7B1F900220221D0
:10299000204608E0002200E001220821284602E04B
:1029A000012249463046BDE8F047FEF7A0B90022B3
:1029B00000E001224146F5E7002291E7BDE8F087FB
:1029C00000080240001802400004024000140240C7
:1029D00008B5FEF79FF9FFF743FCFFF7ABF948484E
:1029E0000024016841F4800101600068224600F47F
:1029F0008000009005213A20FEF716FA3A20FEF7F3
:102A000005FA002205214620FEF70EFA4620FEF7C1
:102A1000FDF93D483B4901604FF4E131C0E9011443
:102A20000C21C460C0E904418461C461FFF79CF8D3
:102A300008B172B6FEE7FFF739FA344D4FF4005192
:102A40002846FEF74CF94FF480412846FEF747F937
:102A50004FF400412846FEF742F92D4E0022042192
:102A60003046FEF744F9002220212A48FEF73FF9BC
:102A7000294F002204213846FEF739F90022E914D3
:102A80002846FEF734F9002208213046FEF72FF9D8
:102A9000002201213846FEF72AF900220221384699
:102AA000FEF725F90022A9142846FEF720F9164959
:102AB0007A20A83101F8010BA72001F8014B01F899
:102AC000030B114848300068026822F008020260D7
:102AD0002A150D48FEF7B3FE00F036F80F4A002124
:102AE0000F4800F05FF80F4C0C4A002120602432A0
:102AF0000D4800F057F8606000F038F8FEE700007D
:102B00003038024000100140E00000200014024074
:102B1000001802400008024000040240044300087C
:102B2000111F0008000000208521000810B5EFF3F8
:102B3000058111B16FF0050403E0002408B100F035
:102B4000F9FD204610BD0000EFF3058010B16FF0D5
:102B5000050070470448016811B14FF0FF3070471D
:102B600001210160002070476800002010B5EFF3DC
:102B7000058010B16FF0050010BD084801680129FB
:102B800002D04FF0FF3010BD054A002182F8141D1D
:102B90000221016000F036FE002010BD6800002018
:102BA0000BE000E02DE9FF414FEA01034FF0000583
:102BB000EFF30581039549BB40B38027182100241A
:102BC0004AB3166806B1344696691EB13146761E80
:102BD000382E02D21679F60703D0002004B0BDE8E3
:102BE000F081566906B1B708D2F808C0BCF1000FF1
:102BF0000DD0D5685C2D18D312693AB136B18DE885
:102C000006103A46214601F096F903900DE0D66889
:102C10005EB912694AB903AACDE90012BAB22146D7
:102C200001F05CF9012800D003950398D6E7000075
:102C30002DE9F041134C0F460546E6682068001D5B
:102C400000F044FC681C07D137B12168BDE8F041B1
:102C50000D48091D00F08ABC20683544B542456026
:102C6000216805D2A06BBDE8F041091D00F066BCEB
:102C7000606B091D00F062FCA06A854200D2A5626B
:102C8000BDE8F081180000203C0B00202DE9F04148
:102C9000054600F077FC2D4CA068401CA060206821
:102CA0002B4F10B1606930B32BE02560A06801287C
:102CB00027D1002606EB860007EB800000F030FCF1
:102CC000761C382EF6D3234800F02AFC2148143015
:102CD00000F026FC1F48283000F022FC1D483C3044
:102CE00000F01EFC1B48503000F01AFC19486063CD
:102CF0001430A06305E02068E96AC06A884200D801
:102D00002560606A401C60626864E86A21698842E4
:102D100000D9206100EB800007EB8000291D00F046
:102D200025FC00F04FFC606900280CD02068E96A9F
:102D3000C06A884207D208494FF080500860BFF34C
:102D40004F8FBFF36F8FBDE8F081000018000020A7
:102D50008C060020EC0A002004ED00E038B500F0FD
:102D600011FC104C2068C8B90F4800F0D9FB0E4880
:102D7000143000F0D5FB0C48E060143020610A4BA1
:102D80000020F03B009003F1500210210A2000F0D7
:102D900047FE206010B105A100F096FCBDE8384068
:102DA00000F010BC54000020400C0020546D725103
:102DB0000000000030B4026C0B46002A0BD0C16842
:102DC0001144C1608468A14201D30168C16030BC74
:102DD0001846FDF732BB30BC70472DE9F041856BDA
:102DE000174604460026026C82B1C7B1E068FDF7C1
:102DF00024FBE168206C091AE1602268914202D24A
:102E0000A168081AE060022F16D017E02068A8B960
:102E1000A06801F033F906460020A0600EE060686B
:102E2000FDF70BFB216C606808446060A168884274
:102E300004D32068606001E005B16D1E6D1CA563C0
:102E40003046BDE8F08110B5044690F8590058B1FD
:102E500001280CD002280FD0502080F31188BFF336
:102E60004F8FBFF36F8FFEE7206B00F0BFFB204654
:102E7000BDE8104000F0BABB10BD000010484FF490
:102E80007051420706D0C01D0D4920F00700411ABD
:102E9000C1F570510B4A00230144C2E9000308390F
:102EA000183A21F0070111604B600B600B1AC0E962
:102EB000001393604FF00040536050617047000072
:102EC0002013002084000020144E154CA6F29C47CD
:102ED0004FF08058DFF84C9012E000BF00F052FB3A
:102EE000F068C568281D00F0F1FAA068401EA060D7
:102EF0006068401E606000F065FB2846FFF7A3FF96
:102F000060680028EAD138680128F9D9C9F800803A
:102F1000BFF34F8FBFF36F8FF2E70000280B002045
:102F20001800002004ED00E070B51D46049C51B16E
:102F3000C4F80020C4E90F010121204600F0A4FDDF
:102F400084F84C5070BD2460F4E700002DE9F05F78
:102F50008846DDE90B941546834691009A460A9E01
:102F6000A522206BFDF7AEFA6FF00301206B01EB99
:102F70008501084420F00707780707D0502080F328
:102F80001188BFF34F8FBFF36F8FFEE70025B8F1B5
:102F9000000F0FD05FF00000221818F8001082F820
:102FA000341018F8001011B1401C1028F4D384F824
:102FB000435001E084F83450382E00D33726E662BF
:102FC000C4E91365201D00F0B6FA04F1180000F002
:102FD000B2FA2461C6F138006462A061656584F8C4
:102FE000585052465946384600F05AFA2060B9F116
:102FF000000F01D0C9F80040BDE8F09F30B511497D
:1030000000E011460A688242FBD34B685C18844298
:1030100003D1406818444860084643681C1894422D
:1030200009D1084C183C2468A24209D052681A44BD
:1030300042600A6812680260814200D0086030BDB8
:103040000460F9E78400002070B5002441600B4D56
:103050000061914206D8D11A8269914206D2011DBF
:10306000286907E09A4203D2994201D3012403E080
:10307000011DE86800F062FA204670BD540000208F
:1030800010B5044600F07EFAA06B28B15FF0000492
:1030900000F098FA204610BD0124F9E730B589B058
:1030A0003C4D6EE00498002806DADDE90601059A39
:1030B00090470498002864DB069C606910B1201DCD
:1030C00000F004FA03A800F0D7F8024604980A2892
:1030D00057D2DFE800F00505052D334A05052D33ED
:1030E00094F8280040F0010084F828000599A069B0
:1030F000059B01442046FFF7A7FF68B3216A2046DD
:10310000884794F8280040073BD500200090059898
:10311000A169002342181946204601F0B9F8D8B930
:10312000502080F31188BFF34F8FBFF36F8FFEE7FE
:1031300014F8280F20F00100207022E094F82800F5
:1031400040F0010084F828000598A06128B181189A
:1031500013462046FFF778FF13E0502080F31188D4
:10316000BFF34F8FBFF36F8FFEE794F828008107FE
:1031700003D4204600F03AFA03E020F0010084F87E
:103180002800002204A9286800F0D2FD002889D177
:1031900009B030BD540000202DE9FC410F46054622
:1031A00000F074FB01A800F067F80446019818B11C
:1031B00000F0DCFFBDE8FC81254EAFB1306900684E
:1031C000D0B30027291B3A46306800F091FA00F08E
:1031D000CDFF0028EED11F494FF080500860BFF3AB
:1031E0004F8FBFF36F8FE5E7A542EBD800F0BEFF2E
:1031F000F0682746C068C468201D00F067F994F89D
:103200002800410719D5A0692B4641193A462046A6
:10321000FFF71AFFA8B100200346014600902A4696
:10322000204601F035F860B9502080F31188BFF3D3
:103230004F8FBFF36F8FFEE707E020F0010084F8A7
:103240002800216A20468847B4E70127BAE7000032
:103250005400002004ED00E00648416B096829B1E4
:10326000416BC968C9684968816270474FF0FF3196
:10327000FAE700001800002070B5054600F094FE43
:10328000064E0446B068844203D200F009F80120DB
:1032900000E0002028602046B46070BD540000208B
:1032A000F8B5194D20E0C068C4680668201D00F01C
:1032B0000DF9216A2046884794F82800400713D565
:1032C000A0693044B04206D924616060211DE868DD
:1032D00000F034F908E00020034601460090324631
:1032E000204600F0D5FF38B1E86801680029DAD13E
:1032F0002969C5E90310F8BD502080F31188BFF398
:103300004F8FBFF36F8FFEE75400002008484068DE
:10331000401C4FF0500080F3118804D0BFF34F8F52
:10332000BFF36F8FFEE7BFF34F8FBFF36F8FFEE7E3
:103330008C000020074CE068016841B1C0680021A2
:10334000D0F80000FFF728FFFFF7A8FEF3E7012100
:103350000020F7E7540000202DE9F041044600F07A
:1033600011F994F9455004F1240609E0606A48B166
:10337000304600F0C3FE08B100F00AFA6D1E6DB2CF
:10338000002DF3DC4FF0FF3684F8456000F01AF9A9
:1033900000F0F8F894F9445004F1100709E02069AE
:1033A00048B1384600F0AAFE08B100F0F1F96D1EF0
:1033B0006DB2002DF3DC84F84460BDE8F04100F00C
:1033C00001B900002DE9F0410546002700F05EFA42
:1033D000324E306808B9FFF751FD706905424ED191
:1033E000C5B3083568070ED005F00700C0F1080026
:1033F0000544680707D0502080F31188BFF34F8F32
:10340000BFF36F8FFEE72DB37068854237D823482E
:10341000183001460C6801E020460C466168A9425C
:1034200002D221680029F7D131688C4227D0076881
:103430002168016060680837411B10290FD96019A5
:10344000420708D0502080F31188BFF34F8FBFF39D
:103450006F8FFEE713E041606560FFF7CFFD6168A5
:103460007068401A7060B268904200D2B0607069B3
:1034700001430020C4E90001F068401CF06000F046
:1034800075FE780707D0502080F31188BFF34F8F67
:10349000BFF36F8FFEE73846BDE8F0816C00002077
:1034A00010B5031F4FF080741C601B1F21F0010139
:1034B0001960191F044B0B6014390A60091F6FF063
:1034C000020244380A6010BD0D330008D0E9013211
:1034D00001699A60D0E901235A604A68824201D1A9
:1034E00082684A60002202610868401E086008681D
:1034F00070470000034B036003F15C00086080200C
:1035000010607047680C0020044B036003F15C00FE
:1035100008604FF48070106070470000C40E0020F7
:1035200000F108014FF0FF32C0E90112C1600161F2
:1035300000210160704700210161704730B50B68C0
:103540005A1C02D000F1080202E0026904E022469F
:10355000546825689D42FAD953684B6099608A6027
:10356000516008610168491C016030BD42684A60D1
:1035700093688B6093685960916008610168491C89
:1035800001607047502080F31188BFF34F8FBFF365
:103590006F8F0A494868401C486001280CD10848D0
:1035A000006810F0FF0F07D0502080F31188BFF3A0
:1035B0004F8FBFF36F8FFEE7704700008C00002035
:1035C00004ED00E00849486828B1401E486001D178
:1035D00080F311887047502080F31188BFF34F8F1C
:1035E000BFF36F8FFEE700008C00002070B500284D
:1035F0002AD0164DA0F1080460686969084207D115
:10360000502080F31188BFF34F8FBFF36F8FFEE719
:1036100022683AB1502080F31188BFF34F8FBFF377
:103620006F8FFEE78843606000F030F9606869687A
:10363000084468602046FFF7E1FC2869401C2861C7
:10364000BDE8704000F092BD70BD00006C0000202D
:103650004FF0E02000210161816105494FF47A7249
:103660000968B1FBF2F1491E416107210161704710
:103670001400002010B5FCF745FE114910280ED3A8
:1036800000F1E02090F8F0030A78904207D2502031
:1036900080F31188BFF34F8FBFF36F8FFEE70948A8
:1036A0000068896800F4E060884207D9502080F300
:1036B0001188BFF34F8FBFF36F8FFEE710BD00007F
:1036C0008C0000200CED00E010B5084B002200BF7C
:1036D00053F832401CB1521C082AF9D310BD43F8EC
:1036E000321003EBC201486010BD00004C06002000
:1036F00070B515460E460446FFF744FF94F9441092
:103700000020491C01D184F8440094F94510491C5B
:1037100001D184F84500FFF755FFA06B28B92A4670
:10372000314604F1240000F051F82046BDE8704015
:10373000FFF712BE10B5020014D00F48006B38B16D
:10374000502080F31188BFF34F8FBFF36F8FFEE7D8
:1037500000F09CF800211046FFF76AFA00F006FD21
:10376000002807D105494FF080500860BFF34F8F04
:10377000BFF36F8F10BD00001800002004ED00E0C3
:1037800002490A6A0260C968416070471800002057
:1037900001490120C86170471800002010B50C468F
:1037A00050B1094909681831FFF7C8FE2046BDE845
:1037B00010400121FFF73CBA502080F31188BFF37D
:1037C0004F8FBFF36F8FFEE71800002070B51446CF
:1037D0000D4668B10A4909681831FFF7C7FE0CB1F8
:1037E0004FF0FF3521462846BDE87040FFF720BA6C
:1037F000502080F31188BFF34F8FBFF36F8FFEE728
:103800001800002030B587B00024039405AA04A94D
:1038100003A80494FFF76EFEDDE903010094CDE9EF
:103820000110002315A11748059A00F084FB164DDE
:103830000028E8621FD000F0FBFC012809D0401CE2
:1038400019D1502080F31188BFF34F8FBFF36F8FD2
:10385000FEE7502080F31188BFF34F8FBFF36F8FC7
:103860004FF0FF30A86201206861EC6007B0BDE84E
:10387000304000F045B807B030BD000049444C4529
:1038800000000000C92E0008180000200248016B4B
:10389000491C01637047000018000020164810B54D
:1038A000016B11B10121C16110BD0021C16101692C
:1038B000124A01E0B9B1491E01EB810352F82330ED
:1038C000002BF7D001EB810302EB830202F1080425
:1038D00053685B685360A34201D15B685360DA6848
:1038E0000260016110BD502080F31188BFF34F8F3B
:1038F000BFF36F8FFEE70000180000208C06002049
:103900001CB537480168374A914207D1502080F3EF
:103910001188BFF34F8FBFF36F8FFEE70068314907
:10392000491E884207D1502080F31188BFF34F8F82
:10393000BFF36F8FFEE72C4908780190FF200870D5
:1039400008788DF800009DF800009DF8002000F038
:10395000F000904207D0502080F31188BFF34F8FC2
:10396000BFF36F8FFEE79DF80000204C00F0500081
:1039700020700720A06005E09DF8002052008DF81F
:103980000020401E9DF800201206F5D4A0600328F8
:1039900007D0502080F31188BFF34F8FBFF36F8F94
:1039A000FEE74FF44070A060019808700C4820308A
:1039B000016841F470010160016841F070410160EB
:1039C000FFF746FE00206060FCF764FC08480168D1
:1039D00041F040410160FCF749FC00201CBD0000A3
:1039E00000ED00E071C20F4100E400E08C00002017
:1039F00034EF00E010B5502080F31188BFF34F8FF3
:103A0000BFF36F8F00F0D6FA18B104494FF0805021
:103A10000860002080F3118810BD000004ED00E074
:103A200038B5049D18B153B1CAB181B120E050201E
:103A300080F31188BFF34F8FBFF36F8FFEE75020E5
:103A400080F31188BFF34F8FBFF36F8FFEE75020D5
:103A500080F31188BFF34F8FBFF36F8FFEE739B14B
:103A6000502080F31188BFF34F8FBFF36F8FFEE7B5
:103A700050241C46012384F846302B460094FFF75F
:103A800053FA204638BD000070B50D46040025D01D
:103A9000FFF778FDD4E90F20216802FB0011A16037
:103AA0000021A163216861600A46D4E90F01401E2C
:103AB00000FB0121E16021464FF0FF3001F8440F87
:103AC000487004F110008DB1FFF72AFD04F12400C5
:103AD000FFF726FDFFF776FD012070BD502080F333
:103AE0001188BFF34F8FBFF36F8FFEE72169002965
:103AF000F0D000F003FB0028ECD004494FF08050D8
:103B00000860BFF34F8FBFF36F8FE3E704ED00E072
:103B10002DE9FF4782B01D468A464FF00008040099
:103B200003D0BAF1000F08D011E0502080F31188C3
:103B3000BFF34F8FBFF36F8FFEE7206C38B150207B
:103B400080F31188BFF34F8FBFF36F8FFEE7022D15
:103B50000AD1E06B012807D0502080F31188BFF311
:103B60004F8FBFF36F8FFEE700F010FA3F4F4FF01B
:103B700000094FF0805648B9049838B1502080F3BE
:103B80001188BFF34F8FBFF36F8FFEE7FFF7FAFC8B
:103B9000A06BE16B884207D3022D05D00498D0B109
:103BA000B8F1000F1AD01EE02A4651462046FFF712
:103BB00014F9616A19B104F1240000F09FFA20B1F0
:103BC0003E60BFF34F8FBFF36F8FFFF7FBFC012009
:103BD00006B0BDE8F087FFF7F5FC22E06846FFF786
:103BE000CFFD4FF00108FFF7EDFCFFF74FFEFFF7A9
:103BF000C9FC94F94400401C01D184F8449094F924
:103C00004500401C01D184F84590FFF7DBFC04A976
:103C1000684600F029F930B12046FFF79DFB00F01F
:103C2000A5FA0020D4E7FFF7ADFCA06BE16B88425A
:103C300013D1FFF7C7FC04F110000499FFF7AEFDA4
:103C40002046FFF789FB00F091FA00289ED13E60E4
:103C5000BFF34F8FBFF36F8F98E7FFF7B3FC20469A
:103C6000FFF77AFB00F082FA90E7000004ED00E035
:103C70002DE9F0471F4690468946040003D0B9F16C
:103C8000000F08D011E0502080F31188BFF34F8F50
:103C9000BFF36F8FFEE7206C38B1502080F311889E
:103CA000BFF34F8FBFF36F8FFEE7022F0AD1E06B98
:103CB000012807D0502080F31188BFF34F8FBFF346
:103CC0006F8FFEE7FFF7D6FC5020EFF3118680F3ED
:103CD0001188BFF34F8FBFF36F8FA06BE16B8842EA
:103CE00006D3022F04D0002086F31188BDE8F087A8
:103CF00094F94550A06B3A4649462046FFF76DF8C7
:103D0000681C04D06D1C84F845500120ECE7606A03
:103D10000028FAD004F1240000F0F0F90028F4D0D3
:103D2000B8F1000FF1D00121C8F80010EDE7000054
:103D30002DE9F747002683B08A46040003D0BAF184
:103D4000000F08D011E0502080F31188BFF34F8F8F
:103D5000BFF36F8FFEE7206C38B1502080F31188DD
:103D6000BFF34F8FBFF36F8FFEE700F00FF9DFF85F
:103D7000F4804FF000094FF0805748B9059838B1EA
:103D8000502080F31188BFF34F8FBFF36F8FFEE792
:103D9000FFF7F8FBA56BC5B151462046FFF70AF8BF
:103DA0006D1EA563206950B104F1100000F0A6F962
:103DB00028B1C8F80070BFF34F8FBFF36F8FFFF7C4
:103DC00001FC012006B0BDE8F087059808B11EB1DE
:103DD00006E0FFF7F7FB27E06846FFF7D1FC012676
:103DE000FFF7F0FBFFF752FDFFF7CCFB94F944001F
:103DF000401C01D184F8449094F94500401C01D145
:103E000084F84590FFF7DEFB05A9684600F02CF822
:103E1000002820460AD0FFF79FFA00F0A7F92046B5
:103E2000FFF72EF90028B3D00020CBE7FFF728F9E1
:103E300090B104F124000599FFF7B0FC2046FFF78C
:103E40008BFA00F093F90028A2D1C8F80070BFF3F4
:103E50004F8FBFF36F8F9BE72046FFF77DFA00F08F
:103E600085F995E704ED00E02DE9F0410C460500E9
:103E700011D0C4B1FFF786FB174BDA686E68206873
:103E8000911B471C17D02F681B6A9F4219D096427E
:103E900017D8012410E0502080F31188BFF34F8F12
:103EA000BFF36F8FFEE7502080F31188BFF34F8F71
:103EB000BFF36F8FFEE70024FFF784FB2046BDE8C9
:103EC000F081884205D9401A20602846FFF758FC47
:103ED000F1E700202060DCE7180000202DE9FF5FFB
:103EE0008346DDE90E87994616468A469000FFF71D
:103EF00069FA05001CD05C20FFF764FA040014D0B6
:103F00000020256384F85900CDE90240CDE90087FF
:103F10004B46324651465846FFF718F82046FEF702
:103F2000B5FE012004B0BDE8F09F2846FFF75EFB18
:103F30004FF0FF30F6E7F0B585B0DDE90B640A9D80
:103F4000A6B1DCB15C2700972663022684F859608D
:103F5000002604AFCDE90246CDE90057FEF7F6FF93
:103F60002046FEF793FE049805B0F0BD502080F384
:103F70001188BFF34F8FBFF36F8FFEE7502080F3A0
:103F80001188BFF34F8FBFF36F8FFEE7054841697C
:103F900019B1006B18B10020704701207047022052
:103FA00070470000180000200148C06870470000FA
:103FB000180000202DE9F0412E4C0027206B28B17D
:103FC000A069401CA0613846BDE8F081E668761C17
:103FD000E66013D1606B006838B1502080F311881F
:103FE000BFF34F8FBFF36F8FFEE7606BA16B616311
:103FF000A063206A401C2062FFF72EF9A06ADFF858
:104000007880864209D3606B0068A0B1606BC0689D
:10401000C5686868864211D2A0622068C06A00EB59
:10402000800158F82100012800D90127E069002803
:10403000C9D00127C7E74FF0FF30EDE7281DFFF794
:1040400045FAA86A18B105F11800FFF73FFAE86AC7
:104050002169884200D9206100EB800108EB8100D2
:10406000291DFFF783FAE86A2168C96A8842CAD322
:104070000127C8E7180000208C06002070B5040056
:104080004FF0000133D01B4D2868844207D05020E8
:1040900080F31188BFF34F8FBFF36F8FFEE7206D62
:1040A00038B1401E2065E36CE26A9A421FD040B1ED
:1040B0001DE0502080F31188BFF34F8FBFF36F8F47
:1040C000FEE7201DFFF702FAE06CE062C0F1380065
:1040D000A061E06A2969884200D92861064900EB9D
:1040E000800001EB8000211DFFF740FA0121084606
:1040F00070BD0000180000208C06002070B5C0685C
:10410000C46854B104F118000646FFF7DFF9144DF6
:10411000286B50B13146134815E0502080F31188C8
:10412000BFF34F8FBFF36F8FFEE7201DFFF7CEF970
:10413000E06A2969884200D928610B4900EB8000B8
:1041400001EB8000211DFFF711FAE06A2968C96AB6
:10415000884202D90120E86170BD002070BD0000D6
:1041600018000020140B00208C0600202DE9F047D9
:104170002C4D00242746286B38B1FFF703FA286B33
:10418000401E2863286B40B146E0502080F3118820
:10419000BFF34F8FBFF36F8FFEE7A968224E012058
:1041A000D1B3A6F5916980463068E0B1F068C46883
:1041B00004F11800FFF78AF9201DFFF787F9E06A7C
:1041C0002969884200D9286100EB800109EB810050
:1041D000211DFFF7CBF9E06A2968C96A8842E3D359
:1041E000C5F81C80E0E70CB1FFF736F8AC694CB1BC
:1041F0004FEA0806FFF7DEFE00B1EE61641EF9D15A
:104200000020A861E86938B108490127380708602B
:10421000BFF34F8FBFF36F8FFFF7D4F93846BDE878
:10422000F087000018000020140B002004ED00E0CF
:1042300010B586B0FEF792FD114C2068B8B1002091
:104240000390049005AA04A903A8FFF75DF9DDE92E
:10425000032102208DE8070000230AA10B48059ADC
:10426000FFF769FE606010B106B0012010BD50205C
:1042700080F31188BFF34F8FBFF36F8FFEE700000D
:1042800054000020546D72205376630035330008CB
:104290002DE9FF411E46134602000A9D4FF0000023
:1042A00016D0144C2768002F0FD0CDE900130292CE
:1042B000062917DAFFF76AFE02284FF000030FD035
:1042C000002269462068FFF723FC04B0BDE8F081B6
:1042D000502080F31188BFF34F8FBFF36F8FFEE73D
:1042E0002A46EEE70023324669463846FFF7C0FC0F
:1042F000EBE70000540000204FF04070E1EE100AA0
:104300007047000078430008000000000000000033
:104310000000000000000000001000003700000056
:1043200000000000000000006C43000800000000D6
:104330000000000000000000000000000008000075
:104340001800000000000000000000000006101629
:104350000006101600000000000000000102030427
:104360000607080900000000010203046D7954618A
:10437000736B30320000000064656661756C7454C4
:1043800061736B00A4430008000000209800000047
:10439000E80100083C44000898000020E8540000B0
:1043A00004020008000000000000000001000000FE
:1043B00010000000000000000024F40000000000D5
:1043C00000000000000000000000000000000000ED
:1043D00000000000000000000000000000000000DD
:1043E00000000000000000000000000000000000CD
:1043F00000000000000000000000000000000000BD
:1044000000000000000000000000000000000000AC
:10441000000000000000000000000000000000009C
:10442000000000000000000000000000000000008C
:0C44300000000000AAAAAAAA00000000D8
:04000005080001AD41
:00000001FF
